{
  "contractName": "EthPriceOracle",
  "abi": [
    {
      "inputs": [
        {
          "internalType": "address",
          "name": "_owner",
          "type": "address"
        }
      ],
      "stateMutability": "nonpayable",
      "type": "constructor"
    },
    {
      "inputs": [],
      "name": "AccessControlBadConfirmation",
      "type": "error"
    },
    {
      "inputs": [
        {
          "internalType": "address",
          "name": "account",
          "type": "address"
        },
        {
          "internalType": "bytes32",
          "name": "neededRole",
          "type": "bytes32"
        }
      ],
      "name": "AccessControlUnauthorizedAccount",
      "type": "error"
    },
    {
      "anonymous": false,
      "inputs": [
        {
          "indexed": false,
          "internalType": "address",
          "name": "oracleAddress",
          "type": "address"
        }
      ],
      "name": "AddOracleEvent",
      "type": "event"
    },
    {
      "anonymous": false,
      "inputs": [
        {
          "indexed": false,
          "internalType": "address",
          "name": "callerAddress",
          "type": "address"
        },
        {
          "indexed": false,
          "internalType": "uint256",
          "name": "id",
          "type": "uint256"
        }
      ],
      "name": "GetLatestEthPriceEvent",
      "type": "event"
    },
    {
      "anonymous": false,
      "inputs": [
        {
          "indexed": false,
          "internalType": "address",
          "name": "oracleAddress",
          "type": "address"
        }
      ],
      "name": "RemoveOracleEvent",
      "type": "event"
    },
    {
      "anonymous": false,
      "inputs": [
        {
          "indexed": true,
          "internalType": "bytes32",
          "name": "role",
          "type": "bytes32"
        },
        {
          "indexed": true,
          "internalType": "bytes32",
          "name": "previousAdminRole",
          "type": "bytes32"
        },
        {
          "indexed": true,
          "internalType": "bytes32",
          "name": "newAdminRole",
          "type": "bytes32"
        }
      ],
      "name": "RoleAdminChanged",
      "type": "event"
    },
    {
      "anonymous": false,
      "inputs": [
        {
          "indexed": true,
          "internalType": "bytes32",
          "name": "role",
          "type": "bytes32"
        },
        {
          "indexed": true,
          "internalType": "address",
          "name": "account",
          "type": "address"
        },
        {
          "indexed": true,
          "internalType": "address",
          "name": "sender",
          "type": "address"
        }
      ],
      "name": "RoleGranted",
      "type": "event"
    },
    {
      "anonymous": false,
      "inputs": [
        {
          "indexed": true,
          "internalType": "bytes32",
          "name": "role",
          "type": "bytes32"
        },
        {
          "indexed": true,
          "internalType": "address",
          "name": "account",
          "type": "address"
        },
        {
          "indexed": true,
          "internalType": "address",
          "name": "sender",
          "type": "address"
        }
      ],
      "name": "RoleRevoked",
      "type": "event"
    },
    {
      "anonymous": false,
      "inputs": [
        {
          "indexed": false,
          "internalType": "uint256",
          "name": "ethPrice",
          "type": "uint256"
        },
        {
          "indexed": false,
          "internalType": "address",
          "name": "callerAddress",
          "type": "address"
        }
      ],
      "name": "SetLatestEthPriceEvent",
      "type": "event"
    },
    {
      "anonymous": false,
      "inputs": [
        {
          "indexed": false,
          "internalType": "uint256",
          "name": "threshold",
          "type": "uint256"
        }
      ],
      "name": "SetThresholdEvent",
      "type": "event"
    },
    {
      "inputs": [],
      "name": "DEFAULT_ADMIN_ROLE",
      "outputs": [
        {
          "internalType": "bytes32",
          "name": "",
          "type": "bytes32"
        }
      ],
      "stateMutability": "view",
      "type": "function"
    },
    {
      "inputs": [],
      "name": "ORACLE_ROLE",
      "outputs": [
        {
          "internalType": "bytes32",
          "name": "",
          "type": "bytes32"
        }
      ],
      "stateMutability": "view",
      "type": "function"
    },
    {
      "inputs": [],
      "name": "OWNER_ROLE",
      "outputs": [
        {
          "internalType": "bytes32",
          "name": "",
          "type": "bytes32"
        }
      ],
      "stateMutability": "view",
      "type": "function"
    },
    {
      "inputs": [
        {
          "internalType": "bytes32",
          "name": "role",
          "type": "bytes32"
        }
      ],
      "name": "getRoleAdmin",
      "outputs": [
        {
          "internalType": "bytes32",
          "name": "",
          "type": "bytes32"
        }
      ],
      "stateMutability": "view",
      "type": "function"
    },
    {
      "inputs": [
        {
          "internalType": "bytes32",
          "name": "role",
          "type": "bytes32"
        },
        {
          "internalType": "address",
          "name": "account",
          "type": "address"
        }
      ],
      "name": "grantRole",
      "outputs": [],
      "stateMutability": "nonpayable",
      "type": "function"
    },
    {
      "inputs": [
        {
          "internalType": "bytes32",
          "name": "role",
          "type": "bytes32"
        },
        {
          "internalType": "address",
          "name": "account",
          "type": "address"
        }
      ],
      "name": "hasRole",
      "outputs": [
        {
          "internalType": "bool",
          "name": "",
          "type": "bool"
        }
      ],
      "stateMutability": "view",
      "type": "function"
    },
    {
      "inputs": [
        {
          "internalType": "bytes32",
          "name": "role",
          "type": "bytes32"
        },
        {
          "internalType": "address",
          "name": "callerConfirmation",
          "type": "address"
        }
      ],
      "name": "renounceRole",
      "outputs": [],
      "stateMutability": "nonpayable",
      "type": "function"
    },
    {
      "inputs": [
        {
          "internalType": "bytes32",
          "name": "role",
          "type": "bytes32"
        },
        {
          "internalType": "address",
          "name": "account",
          "type": "address"
        }
      ],
      "name": "revokeRole",
      "outputs": [],
      "stateMutability": "nonpayable",
      "type": "function"
    },
    {
      "inputs": [
        {
          "internalType": "bytes4",
          "name": "interfaceId",
          "type": "bytes4"
        }
      ],
      "name": "supportsInterface",
      "outputs": [
        {
          "internalType": "bool",
          "name": "",
          "type": "bool"
        }
      ],
      "stateMutability": "view",
      "type": "function"
    },
    {
      "inputs": [
        {
          "internalType": "address",
          "name": "_oracle",
          "type": "address"
        }
      ],
      "name": "addOracle",
      "outputs": [],
      "stateMutability": "nonpayable",
      "type": "function"
    },
    {
      "inputs": [
        {
          "internalType": "address",
          "name": "_oracle",
          "type": "address"
        }
      ],
      "name": "removeOracle",
      "outputs": [],
      "stateMutability": "nonpayable",
      "type": "function"
    },
    {
      "inputs": [
        {
          "internalType": "uint256",
          "name": "_threshold",
          "type": "uint256"
        }
      ],
      "name": "setThreshold",
      "outputs": [],
      "stateMutability": "nonpayable",
      "type": "function"
    },
    {
      "inputs": [],
      "name": "getLatestEthPrice",
      "outputs": [
        {
          "internalType": "uint256",
          "name": "",
          "type": "uint256"
        }
      ],
      "stateMutability": "nonpayable",
      "type": "function"
    },
    {
      "inputs": [
        {
          "internalType": "uint256",
          "name": "_ethPrice",
          "type": "uint256"
        },
        {
          "internalType": "address",
          "name": "_callerAddress",
          "type": "address"
        },
        {
          "internalType": "uint256",
          "name": "_id",
          "type": "uint256"
        }
      ],
      "name": "setLatestEthPrice",
      "outputs": [],
      "stateMutability": "nonpayable",
      "type": "function"
    }
  ],
  "bytecode": "0x60806040525f6001556103e86002555f6003555f60045534801562000022575f80fd5b5060405162001ab738038062001ab783398181016040528101906200004891906200024c565b6200007a7fb19546dff01e856fb3f010c267a7b1c60363cf8a4664e21cc89c26224620214e826200008260201b60201c565b50506200027c565b5f6200009583836200017d60201b60201c565b620001735760015f808581526020019081526020015f205f015f8473ffffffffffffffffffffffffffffffffffffffff1673ffffffffffffffffffffffffffffffffffffffff1681526020019081526020015f205f6101000a81548160ff0219169083151502179055506200010f620001e060201b60201c565b73ffffffffffffffffffffffffffffffffffffffff168273ffffffffffffffffffffffffffffffffffffffff16847f2f8788117e7eff1d82e926ec794901d17c78024a50270940304540a733656f0d60405160405180910390a46001905062000177565b5f90505b92915050565b5f805f8481526020019081526020015f205f015f8373ffffffffffffffffffffffffffffffffffffffff1673ffffffffffffffffffffffffffffffffffffffff1681526020019081526020015f205f9054906101000a900460ff16905092915050565b5f33905090565b5f80fd5b5f73ffffffffffffffffffffffffffffffffffffffff82169050919050565b5f6200021682620001eb565b9050919050565b62000228816200020a565b811462000233575f80fd5b50565b5f8151905062000246816200021d565b92915050565b5f60208284031215620002645762000263620001e7565b5b5f620002738482850162000236565b91505092915050565b61182d806200028a5f395ff3fe608060405234801561000f575f80fd5b50600436106100e8575f3560e01c8063960bfe041161008a578063d547741f11610064578063d547741f14610246578063df5dd1a514610262578063e58378bb1461027e578063fdc85fc41461029c576100e8565b8063960bfe04146101f0578063a217fddf1461020c578063cf642f1f1461022a576100e8565b80632f2ff15d116100c65780632f2ff15d1461016a57806330c0b9ec1461018657806336568abe146101a457806391d14854146101c0576100e8565b806301ffc9a7146100ec57806307e2cea51461011c578063248a9ca31461013a575b5f80fd5b6101066004803603810190610101919061104f565b6102b8565b6040516101139190611094565b60405180910390f35b610124610331565b60405161013191906110c5565b60405180910390f35b610154600480360381019061014f9190611108565b610355565b60405161016191906110c5565b60405180910390f35b610184600480360381019061017f919061118d565b610371565b005b61018e610393565b60405161019b91906111e3565b60405180910390f35b6101be60048036038101906101b9919061118d565b610453565b005b6101da60048036038101906101d5919061118d565b6104ce565b6040516101e79190611094565b60405180910390f35b61020a60048036038101906102059190611226565b610531565b005b6102146105dd565b60405161022191906110c5565b60405180910390f35b610244600480360381019061023f9190611251565b6105e3565b005b610260600480360381019061025b919061118d565b610955565b005b61027c600480360381019061027791906112a1565b610977565b005b610286610ac5565b60405161029391906110c5565b60405180910390f35b6102b660048036038101906102b191906112a1565b610ae9565b005b5f7f7965db0b000000000000000000000000000000000000000000000000000000007bffffffffffffffffffffffffffffffffffffffffffffffffffffffff1916827bffffffffffffffffffffffffffffffffffffffffffffffffffffffff1916148061032a575061032982610c7b565b5b9050919050565b7f68e79a7bf1e0bc45d0a330c573bc367f9cf464fd326078812f301165fbda4ef181565b5f805f8381526020019081526020015f20600101549050919050565b61037a82610355565b61038381610ce4565b61038d8383610cf8565b50505050565b5f60015f8154809291906103a6906112f9565b91905055505f60025442336001546040516020016103c6939291906113a5565b604051602081830303815290604052805190602001205f1c6103e8919061140e565b9050600160055f8381526020019081526020015f205f6101000a81548160ff0219169083151502179055507f3d50a0c24e97813f35595d2f1f37dbf421d5e97f37abd4e222853e9b9c82c8d5338260405161044492919061144d565b60405180910390a18091505090565b61045b610de1565b73ffffffffffffffffffffffffffffffffffffffff168173ffffffffffffffffffffffffffffffffffffffff16146104bf576040517f6697b23200000000000000000000000000000000000000000000000000000000815260040160405180910390fd5b6104c98282610de8565b505050565b5f805f8481526020019081526020015f205f015f8373ffffffffffffffffffffffffffffffffffffffff1673ffffffffffffffffffffffffffffffffffffffff1681526020019081526020015f205f9054906101000a900460ff16905092915050565b61055b7fb19546dff01e856fb3f010c267a7b1c60363cf8a4664e21cc89c26224620214e336104ce565b61059a576040517f08c379a0000000000000000000000000000000000000000000000000000000008152600401610591906114ce565b60405180910390fd5b806004819055507f0f4f9dbb729778e455b47da600927c51653092f52835705824cd1db65a29ed0d6004546040516105d291906111e3565b60405180910390a150565b5f801b81565b61060d7f68e79a7bf1e0bc45d0a330c573bc367f9cf464fd326078812f301165fbda4ef1336104ce565b61064c576040517f08c379a000000000000000000000000000000000000000000000000000000000815260040161064390611536565b60405180910390fd5b60055f8281526020019081526020015f205f9054906101000a900460ff166106a9576040517f08c379a00000000000000000000000000000000000000000000000000000000081526004016106a0906115c4565b60405180910390fd5b6106b1610f22565b60405180606001604052803373ffffffffffffffffffffffffffffffffffffffff1681526020018473ffffffffffffffffffffffffffffffffffffffff16815260200185815250905060065f8381526020019081526020015f2081908060018154018082558091505060019003905f5260205f2090600302015f909190919091505f820151815f015f6101000a81548173ffffffffffffffffffffffffffffffffffffffff021916908373ffffffffffffffffffffffffffffffffffffffff1602179055506020820151816001015f6101000a81548173ffffffffffffffffffffffffffffffffffffffff021916908373ffffffffffffffffffffffffffffffffffffffff1602179055506040820151816002015550505f60065f8481526020019081526020015f20805490509050600454810361094e575f805b60065f8681526020019081526020015f208054905081101561085b5760065f8681526020019081526020015f20818154811061082b5761082a6115e2565b5b905f5260205f2090600302016002015482610846919061160f565b91508080610853906112f9565b9150506107ec565b5081816108689190611642565b905060055f8581526020019081526020015f205f6101000a81549060ff021916905560065f8581526020019081526020015f205f6108a69190610f6c565b5f8590508073ffffffffffffffffffffffffffffffffffffffff1663b5d73ba483876040518363ffffffff1660e01b81526004016108e5929190611672565b5f604051808303815f87803b1580156108fc575f80fd5b505af115801561090e573d5f803e3d5ffd5b505050507f91b860381268a473101de3379abbb70abf7ea6c9d1735cf58b9816479ff3b7278287604051610943929190611699565b60405180910390a150505b5050505050565b61095e82610355565b61096781610ce4565b6109718383610de8565b50505050565b6109a17fb19546dff01e856fb3f010c267a7b1c60363cf8a4664e21cc89c26224620214e336104ce565b6109e0576040517f08c379a00000000000000000000000000000000000000000000000000000000081526004016109d7906114ce565b60405180910390fd5b610a0a7f68e79a7bf1e0bc45d0a330c573bc367f9cf464fd326078812f301165fbda4ef1826104ce565b15610a4a576040517f08c379a0000000000000000000000000000000000000000000000000000000008152600401610a419061170a565b60405180910390fd5b610a747f68e79a7bf1e0bc45d0a330c573bc367f9cf464fd326078812f301165fbda4ef182610371565b60035f815480929190610a86906112f9565b91905055507fed46b7525d27f2470ee188e1d85693a6a8b59537b58701408b2f53588e63d1db81604051610aba9190611728565b60405180910390a150565b7fb19546dff01e856fb3f010c267a7b1c60363cf8a4664e21cc89c26224620214e81565b610b137fb19546dff01e856fb3f010c267a7b1c60363cf8a4664e21cc89c26224620214e336104ce565b610b52576040517f08c379a0000000000000000000000000000000000000000000000000000000008152600401610b49906114ce565b60405180910390fd5b610b7c7f68e79a7bf1e0bc45d0a330c573bc367f9cf464fd326078812f301165fbda4ef1826104ce565b610bbb576040517f08c379a0000000000000000000000000000000000000000000000000000000008152600401610bb290611536565b60405180910390fd5b600160035411610c00576040517f08c379a0000000000000000000000000000000000000000000000000000000008152600401610bf79061178b565b60405180910390fd5b610c2a7f68e79a7bf1e0bc45d0a330c573bc367f9cf464fd326078812f301165fbda4ef182610955565b60035f815480929190610c3c906117a9565b91905055507f8d35b822981364028d4bb40af1edcfd97f4e186c8ccf97bafcc9adc68bd58c6d81604051610c709190611728565b60405180910390a150565b5f7f01ffc9a7000000000000000000000000000000000000000000000000000000007bffffffffffffffffffffffffffffffffffffffffffffffffffffffff1916827bffffffffffffffffffffffffffffffffffffffffffffffffffffffff1916149050919050565b610cf581610cf0610de1565b610ed1565b50565b5f610d0383836104ce565b610dd75760015f808581526020019081526020015f205f015f8473ffffffffffffffffffffffffffffffffffffffff1673ffffffffffffffffffffffffffffffffffffffff1681526020019081526020015f205f6101000a81548160ff021916908315150217905550610d74610de1565b73ffffffffffffffffffffffffffffffffffffffff168273ffffffffffffffffffffffffffffffffffffffff16847f2f8788117e7eff1d82e926ec794901d17c78024a50270940304540a733656f0d60405160405180910390a460019050610ddb565b5f90505b92915050565b5f33905090565b5f610df383836104ce565b15610ec7575f805f8581526020019081526020015f205f015f8473ffffffffffffffffffffffffffffffffffffffff1673ffffffffffffffffffffffffffffffffffffffff1681526020019081526020015f205f6101000a81548160ff021916908315150217905550610e64610de1565b73ffffffffffffffffffffffffffffffffffffffff168273ffffffffffffffffffffffffffffffffffffffff16847ff6391f5c32d9c69d2a47ea670b442974b53935d1edc7fd64eb21e047a839171b60405160405180910390a460019050610ecb565b5f90505b92915050565b610edb82826104ce565b610f1e5780826040517fe2517d3f000000000000000000000000000000000000000000000000000000008152600401610f159291906117d0565b60405180910390fd5b5050565b60405180606001604052805f73ffffffffffffffffffffffffffffffffffffffff1681526020015f73ffffffffffffffffffffffffffffffffffffffff1681526020015f81525090565b5080545f8255600302905f5260205f2090810190610f8a9190610f8d565b50565b5b80821115610ff2575f8082015f6101000a81549073ffffffffffffffffffffffffffffffffffffffff0219169055600182015f6101000a81549073ffffffffffffffffffffffffffffffffffffffff0219169055600282015f905550600301610f8e565b5090565b5f80fd5b5f7fffffffff0000000000000000000000000000000000000000000000000000000082169050919050565b61102e81610ffa565b8114611038575f80fd5b50565b5f8135905061104981611025565b92915050565b5f6020828403121561106457611063610ff6565b5b5f6110718482850161103b565b91505092915050565b5f8115159050919050565b61108e8161107a565b82525050565b5f6020820190506110a75f830184611085565b92915050565b5f819050919050565b6110bf816110ad565b82525050565b5f6020820190506110d85f8301846110b6565b92915050565b6110e7816110ad565b81146110f1575f80fd5b50565b5f81359050611102816110de565b92915050565b5f6020828403121561111d5761111c610ff6565b5b5f61112a848285016110f4565b91505092915050565b5f73ffffffffffffffffffffffffffffffffffffffff82169050919050565b5f61115c82611133565b9050919050565b61116c81611152565b8114611176575f80fd5b50565b5f8135905061118781611163565b92915050565b5f80604083850312156111a3576111a2610ff6565b5b5f6111b0858286016110f4565b92505060206111c185828601611179565b9150509250929050565b5f819050919050565b6111dd816111cb565b82525050565b5f6020820190506111f65f8301846111d4565b92915050565b611205816111cb565b811461120f575f80fd5b50565b5f81359050611220816111fc565b92915050565b5f6020828403121561123b5761123a610ff6565b5b5f61124884828501611212565b91505092915050565b5f805f6060848603121561126857611267610ff6565b5b5f61127586828701611212565b935050602061128686828701611179565b925050604061129786828701611212565b9150509250925092565b5f602082840312156112b6576112b5610ff6565b5b5f6112c384828501611179565b91505092915050565b7f4e487b71000000000000000000000000000000000000000000000000000000005f52601160045260245ffd5b5f611303826111cb565b91507fffffffffffffffffffffffffffffffffffffffffffffffffffffffffffffffff8203611335576113346112cc565b5b600182019050919050565b5f819050919050565b61135a611355826111cb565b611340565b82525050565b5f8160601b9050919050565b5f61137682611360565b9050919050565b5f6113878261136c565b9050919050565b61139f61139a82611152565b61137d565b82525050565b5f6113b08286611349565b6020820191506113c0828561138e565b6014820191506113d08284611349565b602082019150819050949350505050565b7f4e487b71000000000000000000000000000000000000000000000000000000005f52601260045260245ffd5b5f611418826111cb565b9150611423836111cb565b925082611433576114326113e1565b5b828206905092915050565b61144781611152565b82525050565b5f6040820190506114605f83018561143e565b61146d60208301846111d4565b9392505050565b5f82825260208201905092915050565b7f4e6f7420616e206f776e657221000000000000000000000000000000000000005f82015250565b5f6114b8600d83611474565b91506114c382611484565b602082019050919050565b5f6020820190508181035f8301526114e5816114ac565b9050919050565b7f4e6f7420616e206f7261636c65210000000000000000000000000000000000005f82015250565b5f611520600e83611474565b915061152b826114ec565b602082019050919050565b5f6020820190508181035f83015261154d81611514565b9050919050565b7f546869732072657175657374206973206e6f7420696e206d792070656e64696e5f8201527f67206c6973742e00000000000000000000000000000000000000000000000000602082015250565b5f6115ae602783611474565b91506115b982611554565b604082019050919050565b5f6020820190508181035f8301526115db816115a2565b9050919050565b7f4e487b71000000000000000000000000000000000000000000000000000000005f52603260045260245ffd5b5f611619826111cb565b9150611624836111cb565b925082820190508082111561163c5761163b6112cc565b5b92915050565b5f61164c826111cb565b9150611657836111cb565b925082611667576116666113e1565b5b828204905092915050565b5f6040820190506116855f8301856111d4565b61169260208301846111d4565b9392505050565b5f6040820190506116ac5f8301856111d4565b6116b9602083018461143e565b9392505050565b7f416c726561647920616e206f7261636c652100000000000000000000000000005f82015250565b5f6116f4601283611474565b91506116ff826116c0565b602082019050919050565b5f6020820190508181035f830152611721816116e8565b9050919050565b5f60208201905061173b5f83018461143e565b92915050565b7f446f206e6f742072656d6f766520746865206c617374206f7261636c652100005f82015250565b5f611775601e83611474565b915061178082611741565b602082019050919050565b5f6020820190508181035f8301526117a281611769565b9050919050565b5f6117b3826111cb565b91505f82036117c5576117c46112cc565b5b600182039050919050565b5f6040820190506117e35f83018561143e565b6117f060208301846110b6565b939250505056fea2646970667358221220defabc316865cb21dd76118a9e11a9f5f8f8eabeef2978d2cef4745d03b22f0964736f6c63430008150033",
  "immutableReferences": {},
  "source": "// SPDX-License-Identifier: UNLICENSED\n\n\npragma solidity ^0.8.21;\n\nimport \"./openzeppelin/access/AccessControl.sol\";\nimport \"./openzeppelin/utils/Math.sol\";\n//import \"https://github.com/OpenZeppelin/openzeppelin-contracts/blob/master/contracts/access/AccessControl.sol\";\n//import \"https://github.com/OpenZeppelin/openzeppelin-contracts/blob/master/contracts/utils/math/Math.sol\";\nimport \"./CallerContractInterface.sol\";\n\ncontract EthPriceOracle is AccessControl {\n    //using Roles for Roles.Role;\n    using Math for uint256;\n    bytes32 public constant OWNER_ROLE = keccak256(\"OWNER_ROLE\");\n    bytes32 public constant ORACLE_ROLE = keccak256(\"ORACLE_ROLE\");\n \n    uint private randNonce = 0;\n    uint private modulus = 1000;\n    uint private numOracles = 0;\n    uint private THRESHOLD = 0;\n\n    mapping(uint256 => bool) pendingRequests;\n    mapping(uint256 => Response[]) requestIdToResponse;\n\n    struct Response {\n        address oracleAddress;\n        address callerAddress;\n        uint256 ethPrice;\n    }\n\n    event GetLatestEthPriceEvent(address callerAddress, uint id);\n    event SetLatestEthPriceEvent(uint256 ethPrice, address callerAddress);\n    event AddOracleEvent(address oracleAddress);\n    event RemoveOracleEvent(address oracleAddress);\n    event SetThresholdEvent(uint threshold);\n\n    constructor(address _owner)  {\n            _grantRole(OWNER_ROLE, _owner);\n    }\n\n    function addOracle(address _oracle) public {\n        require(hasRole(OWNER_ROLE,msg.sender), \"Not an owner!\");\n        require(!hasRole(ORACLE_ROLE,_oracle), \"Already an oracle!\");\n        grantRole(ORACLE_ROLE, _oracle);\n        numOracles++;\n        emit AddOracleEvent(_oracle);\n    }\n\n    function removeOracle(address _oracle) public {\n        require(hasRole(OWNER_ROLE,msg.sender), \"Not an owner!\");\n        require(hasRole(ORACLE_ROLE,_oracle), \"Not an oracle!\");\n        require(numOracles > 1, \"Do not remove the last oracle!\");\n        revokeRole(ORACLE_ROLE, _oracle);\n        numOracles--;\n        emit RemoveOracleEvent(_oracle);\n    }\n\n    function setThreshold(uint _threshold) public {\n        require(hasRole(OWNER_ROLE,msg.sender), \"Not an owner!\");\n        THRESHOLD = _threshold;\n        emit SetThresholdEvent(THRESHOLD);\n    }\n\n    /// @notice Computes and generates the request id and, for security reasons, this number should be hard to guess. Generating a unique id makes it harder for oracles to collude and manipulate the price for a particular request.\n    /// @dev Uses a naive random number generataion algorithm, better to use Chainlink VRF\n    /// @return The request ID, a random number between 0 and modulus\n    function getLatestEthPrice() public returns (uint256) {\n        randNonce++;\n        uint id = uint( keccak256(abi.encodePacked(block.timestamp, msg.sender, randNonce))   ) % modulus;\n        pendingRequests[id] = true;\n        emit GetLatestEthPriceEvent(msg.sender, id);\n        return id;\n    }\n\n    function setLatestEthPrice(\n        uint256 _ethPrice,\n        address _callerAddress,\n        uint256 _id\n    ) public {\n        require(hasRole(ORACLE_ROLE,msg.sender), \"Not an oracle!\");\n        require(\n            pendingRequests[_id],\n            \"This request is not in my pending list.\"\n        );\n        // Create a response and add it to the request id\n        Response memory resp;\n        resp = Response(msg.sender, _callerAddress, _ethPrice);\n        requestIdToResponse[_id].push(resp);\n        uint numResponses = requestIdToResponse[_id].length;\n        // If oracle responses reaches threshold, calculate the median ETH price and fulfill the request\n        if (numResponses == THRESHOLD) {\n            uint computedEthPrice = 0;\n            for (uint f = 0; f < requestIdToResponse[_id].length; f++) {\n                computedEthPrice = computedEthPrice += requestIdToResponse[_id][f].ethPrice;\n            }\n            computedEthPrice = computedEthPrice / numResponses;\n            delete pendingRequests[_id];\n            delete requestIdToResponse[_id];\n            CallerContractInterface callerContractInstance;\n            callerContractInstance = CallerContractInterface(_callerAddress);\n            callerContractInstance.callback(computedEthPrice, _id);\n            emit SetLatestEthPriceEvent(computedEthPrice, _callerAddress);\n        }\n    }\n}\n",
  "sourcePath": "D:\\Ethereum\\CryptoZombies_LVL2\\ETHPriceOracle-From GIT\\oracle\\contracts\\EthPriceOracle.sol",
  "compiler": {
    "name": "solc",
    "version": "0.8.21+commit.d9974bed.Emscripten.clang"
  },
  "schemaVersion": "3.4.16",
  "updatedAt": "2024-08-20T16:30:07.489Z",
  "devdoc": {
    "errors": {
      "AccessControlBadConfirmation()": [
        {
          "details": "The caller of a function is not the expected one. NOTE: Don't confuse with {AccessControlUnauthorizedAccount}."
        }
      ],
      "AccessControlUnauthorizedAccount(address,bytes32)": [
        {
          "details": "The `account` is missing a role."
        }
      ]
    },
    "events": {
      "RoleAdminChanged(bytes32,bytes32,bytes32)": {
        "details": "Emitted when `newAdminRole` is set as ``role``'s admin role, replacing `previousAdminRole` `DEFAULT_ADMIN_ROLE` is the starting admin for all roles, despite {RoleAdminChanged} not being emitted signaling this."
      },
      "RoleGranted(bytes32,address,address)": {
        "details": "Emitted when `account` is granted `role`. `sender` is the account that originated the contract call. This account bears the admin role (for the granted role). Expected in cases where the role was granted using the internal {AccessControl-_grantRole}."
      },
      "RoleRevoked(bytes32,address,address)": {
        "details": "Emitted when `account` is revoked `role`. `sender` is the account that originated the contract call:   - if using `revokeRole`, it is the admin role bearer   - if using `renounceRole`, it is the role bearer (i.e. `account`)"
      }
    },
    "kind": "dev",
    "methods": {
      "getLatestEthPrice()": {
        "details": "Uses a naive random number generataion algorithm, better to use Chainlink VRF",
        "returns": {
          "_0": "The request ID, a random number between 0 and modulus"
        }
      },
      "getRoleAdmin(bytes32)": {
        "details": "Returns the admin role that controls `role`. See {grantRole} and {revokeRole}. To change a role's admin, use {_setRoleAdmin}."
      },
      "grantRole(bytes32,address)": {
        "details": "Grants `role` to `account`. If `account` had not been already granted `role`, emits a {RoleGranted} event. Requirements: - the caller must have ``role``'s admin role. May emit a {RoleGranted} event."
      },
      "hasRole(bytes32,address)": {
        "details": "Returns `true` if `account` has been granted `role`."
      },
      "renounceRole(bytes32,address)": {
        "details": "Revokes `role` from the calling account. Roles are often managed via {grantRole} and {revokeRole}: this function's purpose is to provide a mechanism for accounts to lose their privileges if they are compromised (such as when a trusted device is misplaced). If the calling account had been revoked `role`, emits a {RoleRevoked} event. Requirements: - the caller must be `callerConfirmation`. May emit a {RoleRevoked} event."
      },
      "revokeRole(bytes32,address)": {
        "details": "Revokes `role` from `account`. If `account` had been granted `role`, emits a {RoleRevoked} event. Requirements: - the caller must have ``role``'s admin role. May emit a {RoleRevoked} event."
      },
      "supportsInterface(bytes4)": {
        "details": "See {IERC165-supportsInterface}."
      }
    },
    "version": 1
  },
  "userdoc": {
    "kind": "user",
    "methods": {
      "getLatestEthPrice()": {
        "notice": "Computes and generates the request id and, for security reasons, this number should be hard to guess. Generating a unique id makes it harder for oracles to collude and manipulate the price for a particular request."
      }
    },
    "version": 1
  }
}